S0150000496E74657266616365436F64652E7372656303
S11300000C942A000C941F040C9448040C9471045E
S11300100C9447000C9447000C94C4050C9472058E
S11300200C949B050C9449050C94C3040C949A04F9
S11300300C9447000C9447000C9447000C94470020
S11300400C9447000C9447000C9447000C94470010
S11300500C94470011241FBECFE5D8E0DEBFCDBF0E
S113006010E0A0E6B0E0EEE2FCE002C005900D92E4
S1130070A038B107D9F720E0A0E8B0E001C01D9294
S1130080AA39B207E1F70E9495010C9415060C9465
S113009000000895CF93C82F60E08AE00E94050312
S11300A06C2F661F6627661F87E00E940503C6FB48
S11300B0662760F986E00E940503C5FB662760F9A0
S11300C085E00E940503C4FB662760F984E00E9472
S11300D0050361E089E00E9405038FEC97E0019736
S11300E0F1F700C0000060E089E00E9405038FEC96
S11300F097E00197F1F700C00000C3FB662760F9A1
S113010087E00E940503C2FB662760F986E00E942F
S11301100503C1FB662760F985E00E9405036C2F87
S1130120617084E00E94050361E089E00E94050398
S11301308FEC97E00197F1F700C0000060E089E0E0
S11301400E9405038FEC97E00197F1F700C00000CF
S1130150CF910895CF93C82F61E08AE00E940503F0
S11301606C2F661F6627661F87E00E940503C6FB87
S1130170662760F986E00E940503C5FB662760F9DF
S113018085E00E940503C4FB662760F984E00E94B1
S1130190050361E089E00E9405038FEC97E0019775
S11301A0F1F700C0000060E089E00E9405038FECD5
S11301B097E00197F1F700C00000C3FB662760F9E0
S11301C087E00E940503C2FB662760F986E00E946F
S11301D00503C1FB662760F985E00E9405036C2FC7
S11301E0617084E00E94050361E089E00E940503D8
S11301F08FEC97E00197F1F700C0000060E089E020
S11302000E9405038FEC97E00197F1F700C000000E
S1130210CF9108952FE788E391E0215080409040EA
S1130220E1F700C0000082E00E944A0088E20E94D8
S11302304A008CE00E944A0081E00E944A008FEC50
S113024097E00197F1F700C0000086E00E944A00A1
S113025008950E94AA000895EF92FF921F93CF93EE
S1130260DF93CDB7DEB760970FB6F894DEBF0FBE4D
S1130270CDBF7C01009721F480E30E9429012DC0A9
S1130280992334F4F194E194F1088DE20E94290158
S113029010E010C0C7016AE070E00E940106E1E0CE
S11302A0F0E0EC0FFD1FE10FF11D805D8083E62E71
S11302B0F72E1F5F1E141F046CF311500CC0E1E0F5
S11302C0F0E0EC0FFD1FE10FF11D17FDFA958081A1
S11302D00E9429011150112394F760960FB6F894E7
S11302E0DEBF0FBECDBFDF91CF911F91FF90EF9086
S11302F00895811105C080E8860F0E944A00089580
S1130300813021F480EC860F0E944A0008958CB558
S11303109DB5909385008093840008958CB59DB518
S11303209093830080938200089578940E948C03B4
S11303300E940A010E94490065E081E00E94E101F7
S113034062E080E00E94EC040E9440058EE891E0A7
S11303500E94440563E080E00E94AE0380E00E94B6
S11303609C0367E871E080E00E940A0463E081E096
S11303700E94AE0381E00E949C036EE871E080E07D
S11303800E940A048091820090918300209184004D
S113039030918500821B930B209186003091870059
S11303A0821B930B909381008093800060E080E037
S11303B00E94790180918000909181000E942C011B
S11303C0E1CF96B1987F96B996B1692B66B997B18A
S11303D09F7D97B9813059F018F0823079F014C0BC
S11303E087B18F7B87B987B18F7787B90DC087B104
S11303F0806487B987B18F7787B906C087B1806475
S113040087B987B1806887B986B1806886B908954D
S1130410982F9695969596958770613009F455C0F6
S113042020F0623009F4A1C008959130C1F028F0A1
S1130430923039F19330B9F108954AB321E030E0B4
S1130440B90102C0660F771F8A95E2F7CB01942F9A
S1130450982B9ABB9BB3809589238BBB089547B394
S113046021E030E0B90102C0660F771F8A95E2F7F8
S1130470CB01942F982B97BB98B38095892388BB85
S1130480089544B321E030E0B90102C0660F771F3C
S11304908A95E2F7CB01942F982B94BB95B3809562
S11304A0892385BB089541B321E030E0B90102C03E
S11304B0660F771F8A95E2F7CB01942F982B91BB97
S11304C092B38095892382BB08959130C1F028F0BE
S11304D0923039F19330B9F108954AB321E030E014
S11304E0B90102C0660F771F8A95E2F7CB018095A8
S11304F0942F98239ABB9BB389238BBB089547B34E
S113050021E030E0B90102C0660F771F8A95E2F757
S1130510CB018095942F982397BB98B3892388BBEC
S1130520089544B321E030E0B90102C0660F771F9B
S11305308A95E2F7CB018095942F982394BB95B3C9
S1130540892385BB089541B321E030E0B90102C09D
S1130550660F771F8A95E2F7CB018095942F982335
S113056091BB92B3892382BB08959130C1F028F0E6
S1130570923039F19330B9F108954AB321E030E073
S1130580B90102C0660F771F8A95E2F7CB01962F57
S1130590909594239ABB9BB3892B8BBB089547B347
S11305A021E030E0B90102C0660F771F8A95E2F7B7
S11305B0CB01962F9095942397BB98B3892B88BB36
S11305C0089544B321E030E0B90102C0660F771FFB
S11305D08A95E2F7CB01962F9095942394BB95B31B
S11305E0892B85BB089541B321E030E0B90102C0F5
S11305F0660F771F8A95E2F7CB01962F9095942387
S113060091BB92B3892B82BB0895982F96959695AA
S113061096958770662321F0613009F441C00895EE
S11306209130A1F028F09230F9F0933059F1089507
S11306304BB321E030E0B90102C0660F771F8A9501
S1130640E2F7CB01809584238BBB089548B321E066
S113065030E0B90102C0660F771F8A95E2F7CB013B
S11306608095842388BB089545B321E030E0B90127
S113067002C0660F771F8A95E2F7CB018095842329
S113068085BB089542B321E030E0B90102C0660F92
S1130690771F8A95E2F7CB018095842382BB089566
S11306A0913099F028F09230E9F0933041F10895B7
S11306B04BB321E030E0B90102C0660F771F8A9581
S11306C0E2F7CB01842B8BBB089548B321E030E0E3
S11306D0B90102C0660F771F8A95E2F7CB01842B1C
S11306E088BB089545B321E030E0B90102C0660F2C
S11306F0771F8A95E2F7CB01842B85BB089542B31B
S113070021E030E0B90102C0660F771F8A95E2F755
S1130710CB01842B82BB0895CF93C0E009C0EC2F9A
S1130720F0E0E05AFF4F60818C2F0E940802CF5FF7
S1130730C032A8F3CF910895813041F018F082308F
S113074049F008958BB780648BBF08958BB7806898
S11307508BBF08958BB780628BBF0895611113C05E
S1130760882319F0813041F0089585B78E7F85BFC5
S113077085B78D7F85BF089585B78B7F85BF85B786
S1130780877F85BF0895613099F4882319F08130FB
S113079041F0089585B7816085BF85B78D7F85BF9A
S11307A0089585B7846085BF85B7877F85BF089521
S11307B06230C1F4813059F018F0823079F0089534
S11307C085B7816085BF85B7826085BF089585B789
S11307D0846085BF85B7886085BF089584B78064C9
S11307E084BF0895813059F018F0823079F008956B
S11307F085B78E7F85BF85B7826085BF089585B72D
S11308008B7F85BF85B7886085BF089584B78F7B4C
S113081084BF0895813049F018F0823059F008956A
S113082070938D0060938C00089570938B00609397
S11308308A000895709389006093880008951F9238
S11308400F920FB60F9211242F933F934F935F9300
S11308506F937F938F939F93AF93BF93EF93FF9384
S1130860E0918C00F0918D00309709F00995FF918B
S1130870EF91BF91AF919F918F917F916F915F9114
S11308804F913F912F910F900FBE0F901F9018958D
S11308901F920F920FB60F9211242F933F934F93F1
S11308A05F936F937F938F939F93AF93BF93EF93D4
S11308B0FF93E0918A00F0918B00309709F009953D
S11308C0FF91EF91BF91AF919F918F917F916F9124
S11308D05F914F913F912F910F900FBE0F901F90FA
S11308E018951F920F920FB60F9211242F933F93D6
S11308F04F935F936F937F938F939F93AF93BF9324
S1130900EF93FF93E0918800F0918900309709F00C
S11309100995FF91EF91BF91AF919F918F917F9135
S11309206F915F914F913F912F910F900FBE0F9058
S11309301F9018951F920F920FB60F9211242F93A8
S11309403F934F935F936F937F938F939F93AF9353
S1130950BF93EF93FF93E0919800F0919900309743
S113096009F00995FF91EF91BF91AF919F918F91FC
S11309707F916F915F914F913F912F910F900FBE97
S11309800F901F9018951F920F920FB60F9211247B
S11309902F933F934F935F936F937F938F939F9383
S11309A0AF93BF93EF93FF93E0919600F09197007C
S11309B0309709F00995FF91EF91BF91AF919F9105
S11309C08F917F916F915F914F913F912F910F90F4
S11309D00FBE0F901F9018958C30C1F028F4882317
S11309E041F0843001F145C08E3051F18F30A9F1CE
S11309F040C08FB58E7F8FBD8FB58D7F8FBD8EB577
S1130A00877F8EBD8EB58F7E8EBD33C08FB58E7FB2
S1130A108FBD8FB58D7F8FBD8EB588608EBD8EB531
S1130A2080618EBD26C08FB58E7F8FBD8FB58D7FC3
S1130A308FBD8EB588608EBD8EB58F7E8EBD19C07C
S1130A408FB58E7F8FBD8FB582608FBD8EB5886068
S1130A508EBD8EB580618EBD0CC08FB581608FBD9B
S1130A608FB582608FBD8EB588608EBD8EB5806176
S1130A708EBD8EB5887F8EBD8EB5682B6EBD0895F4
S1130A8089B7846089BF08959093950080939400FA
S1130A9008951F920F920FB60F9211242F933F9334
S1130AA04F935F936F937F938F939F93AF93BF9372
S1130AB0EF93FF93E0919400F0919500309709F043
S1130AC00995FF91EF91BF91AF919F918F917F9184
S1130AD06F915F914F913F912F910F900FBE0F90A7
S1130AE01F9018951F920F920FB60F9211242F93F7
S1130AF03F934F935F936F937F938F939F93AF93A2
S1130B00BF93EF93FF93E0919200F091930030979D
S1130B1009F00995FF91EF91BF91AF919F918F914A
S1130B207F916F915F914F913F912F910F900FBEE5
S1130B300F901F9018951F920F920FB60F921124C9
S1130B402F933F934F935F936F937F938F939F93D1
S1130B50AF93BF93EF93FF93E0919000F0919100D6
S1130B60309709F00995FF91EF91BF91AF919F9153
S1130B708F917F916F915F914F913F912F910F9042
S1130B800FBE0F901F9018951F920F920FB60F92E1
S1130B9011242F933F934F935F936F937F938F937E
S1130BA09F93AF93BF93EF93FF93E0918E00F091E7
S1130BB08F00309709F00995FF91EF91BF91AF91A4
S1130BC09F918F917F916F915F914F913F912F9161
S1130BD00F900FBE0F901F901895AA1BBB1B51E1DD
S1130BE007C0AA1FBB1FA617B70710F0A61BB70B99
S1130BF0881F991F5A95A9F780959095BC01CD013E
S1130C00089597FB072E16F4009407D077FD09D0BA
S1130C100E94ED0507FC05D03EF4909581959F4F09
S1110C200895709561957F4F0895F894FFCF65
S1130C2E01010101000000000000000000000000AE
S1130C3E000000000000000002000202000002009A
S9030000FC
